{
  "_format": "hh-sol-artifact-1",
  "contractName": "Token",
  "sourceName": "contracts/Token.sol",
  "abi": [
    {
      "inputs": [
        {
          "internalType": "uint256",
          "name": "initialSupply",
          "type": "uint256"
        }
      ],
      "stateMutability": "nonpayable",
      "type": "constructor"
    },
    {
      "anonymous": false,
      "inputs": [
        {
          "indexed": true,
          "internalType": "address",
          "name": "owner",
          "type": "address"
        },
        {
          "indexed": true,
          "internalType": "address",
          "name": "spender",
          "type": "address"
        },
        {
          "indexed": false,
          "internalType": "uint256",
          "name": "value",
          "type": "uint256"
        }
      ],
      "name": "Approval",
      "type": "event"
    },
    {
      "anonymous": false,
      "inputs": [
        {
          "indexed": false,
          "internalType": "uint256",
          "name": "amount",
          "type": "uint256"
        }
      ],
      "name": "Bought",
      "type": "event"
    },
    {
      "anonymous": false,
      "inputs": [
        {
          "indexed": false,
          "internalType": "uint256",
          "name": "amount",
          "type": "uint256"
        }
      ],
      "name": "Claimed",
      "type": "event"
    },
    {
      "anonymous": false,
      "inputs": [
        {
          "indexed": true,
          "internalType": "address",
          "name": "from",
          "type": "address"
        },
        {
          "indexed": true,
          "internalType": "address",
          "name": "to",
          "type": "address"
        },
        {
          "indexed": false,
          "internalType": "uint256",
          "name": "value",
          "type": "uint256"
        }
      ],
      "name": "Transfer",
      "type": "event"
    },
    {
      "inputs": [],
      "name": "Buy",
      "outputs": [],
      "stateMutability": "payable",
      "type": "function"
    },
    {
      "inputs": [
        {
          "internalType": "uint256",
          "name": "amountClaim",
          "type": "uint256"
        }
      ],
      "name": "Claim",
      "outputs": [],
      "stateMutability": "payable",
      "type": "function"
    },
    {
      "inputs": [
        {
          "internalType": "address",
          "name": "owner",
          "type": "address"
        },
        {
          "internalType": "address",
          "name": "spender",
          "type": "address"
        }
      ],
      "name": "allowance",
      "outputs": [
        {
          "internalType": "uint256",
          "name": "",
          "type": "uint256"
        }
      ],
      "stateMutability": "view",
      "type": "function"
    },
    {
      "inputs": [
        {
          "internalType": "address",
          "name": "spender",
          "type": "address"
        },
        {
          "internalType": "uint256",
          "name": "amount",
          "type": "uint256"
        }
      ],
      "name": "approve",
      "outputs": [
        {
          "internalType": "bool",
          "name": "",
          "type": "bool"
        }
      ],
      "stateMutability": "nonpayable",
      "type": "function"
    },
    {
      "inputs": [
        {
          "internalType": "address",
          "name": "account",
          "type": "address"
        }
      ],
      "name": "balanceOf",
      "outputs": [
        {
          "internalType": "uint256",
          "name": "",
          "type": "uint256"
        }
      ],
      "stateMutability": "view",
      "type": "function"
    },
    {
      "inputs": [],
      "name": "decimals",
      "outputs": [
        {
          "internalType": "uint8",
          "name": "",
          "type": "uint8"
        }
      ],
      "stateMutability": "view",
      "type": "function"
    },
    {
      "inputs": [
        {
          "internalType": "address",
          "name": "spender",
          "type": "address"
        },
        {
          "internalType": "uint256",
          "name": "subtractedValue",
          "type": "uint256"
        }
      ],
      "name": "decreaseAllowance",
      "outputs": [
        {
          "internalType": "bool",
          "name": "",
          "type": "bool"
        }
      ],
      "stateMutability": "nonpayable",
      "type": "function"
    },
    {
      "inputs": [],
      "name": "getBalanceToken",
      "outputs": [
        {
          "internalType": "uint256",
          "name": "",
          "type": "uint256"
        }
      ],
      "stateMutability": "view",
      "type": "function"
    },
    {
      "inputs": [],
      "name": "getOwner",
      "outputs": [
        {
          "internalType": "address",
          "name": "",
          "type": "address"
        }
      ],
      "stateMutability": "view",
      "type": "function"
    },
    {
      "inputs": [
        {
          "internalType": "address",
          "name": "spender",
          "type": "address"
        },
        {
          "internalType": "uint256",
          "name": "addedValue",
          "type": "uint256"
        }
      ],
      "name": "increaseAllowance",
      "outputs": [
        {
          "internalType": "bool",
          "name": "",
          "type": "bool"
        }
      ],
      "stateMutability": "nonpayable",
      "type": "function"
    },
    {
      "inputs": [],
      "name": "name",
      "outputs": [
        {
          "internalType": "string",
          "name": "",
          "type": "string"
        }
      ],
      "stateMutability": "view",
      "type": "function"
    },
    {
      "inputs": [],
      "name": "symbol",
      "outputs": [
        {
          "internalType": "string",
          "name": "",
          "type": "string"
        }
      ],
      "stateMutability": "view",
      "type": "function"
    },
    {
      "inputs": [],
      "name": "totalSupply",
      "outputs": [
        {
          "internalType": "uint256",
          "name": "",
          "type": "uint256"
        }
      ],
      "stateMutability": "view",
      "type": "function"
    },
    {
      "inputs": [
        {
          "internalType": "address",
          "name": "_to",
          "type": "address"
        },
        {
          "internalType": "uint256",
          "name": "amount",
          "type": "uint256"
        }
      ],
      "name": "transfer",
      "outputs": [
        {
          "internalType": "bool",
          "name": "",
          "type": "bool"
        }
      ],
      "stateMutability": "nonpayable",
      "type": "function"
    },
    {
      "inputs": [
        {
          "internalType": "address",
          "name": "from",
          "type": "address"
        },
        {
          "internalType": "address",
          "name": "to",
          "type": "address"
        },
        {
          "internalType": "uint256",
          "name": "amount",
          "type": "uint256"
        }
      ],
      "name": "transferFrom",
      "outputs": [
        {
          "internalType": "bool",
          "name": "",
          "type": "bool"
        }
      ],
      "stateMutability": "nonpayable",
      "type": "function"
    }
  ],
  "bytecode": "0x60806040523480156200001157600080fd5b5060405162002050380380620020508339818101604052810190620000379190620003ab565b6040518060400160405280600581526020017f435155414e0000000000000000000000000000000000000000000000000000008152506040518060400160405280600281526020017f43510000000000000000000000000000000000000000000000000000000000008152508160039080519060200190620000bb929190620002bb565b508060049080519060200190620000d4929190620002bb565b505050620000e933826200013860201b60201c565b33600560006101000a81548173ffffffffffffffffffffffffffffffffffffffff021916908373ffffffffffffffffffffffffffffffffffffffff16021790555080600681905550506200057f565b600073ffffffffffffffffffffffffffffffffffffffff168273ffffffffffffffffffffffffffffffffffffffff161415620001ab576040517f08c379a0000000000000000000000000000000000000000000000000000000008152600401620001a2906200043e565b60405180910390fd5b620001bf60008383620002b160201b60201c565b8060026000828254620001d391906200048f565b92505081905550806000808473ffffffffffffffffffffffffffffffffffffffff1673ffffffffffffffffffffffffffffffffffffffff16815260200190815260200160002060008282546200022a91906200048f565b925050819055508173ffffffffffffffffffffffffffffffffffffffff16600073ffffffffffffffffffffffffffffffffffffffff167fddf252ad1be2c89b69c2b068fc378daa952ba7f163c4a11628f55a4df523b3ef83604051620002919190620004fd565b60405180910390a3620002ad60008383620002b660201b60201c565b5050565b505050565b505050565b828054620002c99062000549565b90600052602060002090601f016020900481019282620002ed576000855562000339565b82601f106200030857805160ff191683800117855562000339565b8280016001018555821562000339579182015b82811115620003385782518255916020019190600101906200031b565b5b5090506200034891906200034c565b5090565b5b80821115620003675760008160009055506001016200034d565b5090565b600080fd5b6000819050919050565b620003858162000370565b81146200039157600080fd5b50565b600081519050620003a5816200037a565b92915050565b600060208284031215620003c457620003c36200036b565b5b6000620003d48482850162000394565b91505092915050565b600082825260208201905092915050565b7f45524332303a206d696e7420746f20746865207a65726f206164647265737300600082015250565b600062000426601f83620003dd565b91506200043382620003ee565b602082019050919050565b60006020820190508181036000830152620004598162000417565b9050919050565b7f4e487b7100000000000000000000000000000000000000000000000000000000600052601160045260246000fd5b60006200049c8262000370565b9150620004a98362000370565b9250827fffffffffffffffffffffffffffffffffffffffffffffffffffffffffffffffff03821115620004e157620004e062000460565b5b828201905092915050565b620004f78162000370565b82525050565b6000602082019050620005146000830184620004ec565b92915050565b7f4e487b7100000000000000000000000000000000000000000000000000000000600052602260045260246000fd5b600060028204905060018216806200056257607f821691505b602082108114156200057957620005786200051a565b5b50919050565b611ac1806200058f6000396000f3fe6080604052600436106100e85760003560e01c806370a082311161008a578063974c86b511610059578063974c86b5146102ff578063a457c2d714610309578063a9059cbb14610346578063dd62ed3e14610383576100e8565b806370a08231146102505780637bb2b3c11461028d578063893d20e8146102a957806395d89b41146102d4576100e8565b806318160ddd116100c657806318160ddd1461018057806323b872dd146101ab578063313ce567146101e85780633950935114610213576100e8565b806306fdde03146100ed578063095ea7b3146101185780631425d2fa14610155575b600080fd5b3480156100f957600080fd5b506101026103c0565b60405161010f91906110d6565b60405180910390f35b34801561012457600080fd5b5061013f600480360381019061013a9190611191565b610452565b60405161014c91906111ec565b60405180910390f35b34801561016157600080fd5b5061016a610475565b6040516101779190611216565b60405180910390f35b34801561018c57600080fd5b50610195610505565b6040516101a29190611216565b60405180910390f35b3480156101b757600080fd5b506101d260048036038101906101cd9190611231565b61050f565b6040516101df91906111ec565b60405180910390f35b3480156101f457600080fd5b506101fd61053e565b60405161020a91906112a0565b60405180910390f35b34801561021f57600080fd5b5061023a60048036038101906102359190611191565b610547565b60405161024791906111ec565b60405180910390f35b34801561025c57600080fd5b50610277600480360381019061027291906112bb565b61057e565b6040516102849190611216565b60405180910390f35b6102a760048036038101906102a291906112e8565b6105c6565b005b3480156102b557600080fd5b506102be61068e565b6040516102cb9190611324565b60405180910390f35b3480156102e057600080fd5b506102e96106b8565b6040516102f691906110d6565b60405180910390f35b61030761074a565b005b34801561031557600080fd5b50610330600480360381019061032b9190611191565b610a1c565b60405161033d91906111ec565b60405180910390f35b34801561035257600080fd5b5061036d60048036038101906103689190611191565b610a93565b60405161037a91906111ec565b60405180910390f35b34801561038f57600080fd5b506103aa60048036038101906103a5919061133f565b610acc565b6040516103b79190611216565b60405180910390f35b6060600380546103cf906113ae565b80601f01602080910402602001604051908101604052809291908181526020018280546103fb906113ae565b80156104485780601f1061041d57610100808354040283529160200191610448565b820191906000526020600020905b81548152906001019060200180831161042b57829003601f168201915b5050505050905090565b60008061045d610b53565b905061046a818585610b5b565b600191505092915050565b60003073ffffffffffffffffffffffffffffffffffffffff166370a08231336040518263ffffffff1660e01b81526004016104b09190611324565b60206040518083038186803b1580156104c857600080fd5b505afa1580156104dc573d6000803e3d6000fd5b505050506040513d601f19601f8201168201806040525081019061050091906113f5565b905090565b6000600254905090565b60008061051a610b53565b9050610527858285610d26565b610532858585610db2565b60019150509392505050565b60006012905090565b600080610552610b53565b90506105738185856105648589610acc565b61056e9190611451565b610b5b565b600191505092915050565b60008060008373ffffffffffffffffffffffffffffffffffffffff1673ffffffffffffffffffffffffffffffffffffffff168152602001908152602001600020549050919050565b3073ffffffffffffffffffffffffffffffffffffffff1663a9059cbb33836040518363ffffffff1660e01b81526004016106019291906114a7565b602060405180830381600087803b15801561061b57600080fd5b505af115801561062f573d6000803e3d6000fd5b505050506040513d601f19601f8201168201806040525081019061065391906114fc565b507f7a355715549cfe7c1cba26304350343fbddc4b4f72d3ce3e7c27117dd20b5cb8816040516106839190611216565b60405180910390a150565b6000600560009054906101000a900473ffffffffffffffffffffffffffffffffffffffff16905090565b6060600480546106c7906113ae565b80601f01602080910402602001604051908101604052809291908181526020018280546106f3906113ae565b80156107405780601f1061071557610100808354040283529160200191610740565b820191906000526020600020905b81548152906001019060200180831161072357829003601f168201915b5050505050905090565b600034905060003073ffffffffffffffffffffffffffffffffffffffff166370a08231600560009054906101000a900473ffffffffffffffffffffffffffffffffffffffff166040518263ffffffff1660e01b81526004016107ac9190611324565b60206040518083038186803b1580156107c457600080fd5b505afa1580156107d8573d6000803e3d6000fd5b505050506040513d601f19601f820116820180604052508101906107fc91906113f5565b905060008211610841576040517f08c379a000000000000000000000000000000000000000000000000000000000815260040161083890611575565b60405180910390fd5b80821115610884576040517f08c379a000000000000000000000000000000000000000000000000000000000815260040161087b906115e1565b60405180910390fd5b3073ffffffffffffffffffffffffffffffffffffffff1663a9059cbb33846040518363ffffffff1660e01b81526004016108bf9291906114a7565b602060405180830381600087803b1580156108d957600080fd5b505af11580156108ed573d6000803e3d6000fd5b505050506040513d601f19601f8201168201806040525081019061091191906114fc565b506000600560009054906101000a900473ffffffffffffffffffffffffffffffffffffffff1673ffffffffffffffffffffffffffffffffffffffff163460405161095a90611632565b60006040518083038185875af1925050503d8060008114610997576040519150601f19603f3d011682016040523d82523d6000602084013e61099c565b606091505b50509050806109e0576040517f08c379a00000000000000000000000000000000000000000000000000000000081526004016109d790611693565b60405180910390fd5b7f4e08ba899977cf7d4c2964bce71c6b9a7ef76ee5166a4c1249a1e08016e33ef183604051610a0f9190611216565b60405180910390a1505050565b600080610a27610b53565b90506000610a358286610acc565b905083811015610a7a576040517f08c379a0000000000000000000000000000000000000000000000000000000008152600401610a7190611725565b60405180910390fd5b610a878286868403610b5b565b60019250505092915050565b6000610ac2600560009054906101000a900473ffffffffffffffffffffffffffffffffffffffff168484610db2565b6001905092915050565b6000600160008473ffffffffffffffffffffffffffffffffffffffff1673ffffffffffffffffffffffffffffffffffffffff16815260200190815260200160002060008373ffffffffffffffffffffffffffffffffffffffff1673ffffffffffffffffffffffffffffffffffffffff16815260200190815260200160002054905092915050565b600033905090565b600073ffffffffffffffffffffffffffffffffffffffff168373ffffffffffffffffffffffffffffffffffffffff161415610bcb576040517f08c379a0000000000000000000000000000000000000000000000000000000008152600401610bc2906117b7565b60405180910390fd5b600073ffffffffffffffffffffffffffffffffffffffff168273ffffffffffffffffffffffffffffffffffffffff161415610c3b576040517f08c379a0000000000000000000000000000000000000000000000000000000008152600401610c3290611849565b60405180910390fd5b80600160008573ffffffffffffffffffffffffffffffffffffffff1673ffffffffffffffffffffffffffffffffffffffff16815260200190815260200160002060008473ffffffffffffffffffffffffffffffffffffffff1673ffffffffffffffffffffffffffffffffffffffff168152602001908152602001600020819055508173ffffffffffffffffffffffffffffffffffffffff168373ffffffffffffffffffffffffffffffffffffffff167f8c5be1e5ebec7d5bd14f71427d1e84f3dd0314c0f7b2291e5b200ac8c7c3b92583604051610d199190611216565b60405180910390a3505050565b6000610d328484610acc565b90507fffffffffffffffffffffffffffffffffffffffffffffffffffffffffffffffff8114610dac5781811015610d9e576040517f08c379a0000000000000000000000000000000000000000000000000000000008152600401610d95906118b5565b60405180910390fd5b610dab8484848403610b5b565b5b50505050565b600073ffffffffffffffffffffffffffffffffffffffff168373ffffffffffffffffffffffffffffffffffffffff161415610e22576040517f08c379a0000000000000000000000000000000000000000000000000000000008152600401610e1990611947565b60405180910390fd5b600073ffffffffffffffffffffffffffffffffffffffff168273ffffffffffffffffffffffffffffffffffffffff161415610e92576040517f08c379a0000000000000000000000000000000000000000000000000000000008152600401610e89906119d9565b60405180910390fd5b610e9d838383611033565b60008060008573ffffffffffffffffffffffffffffffffffffffff1673ffffffffffffffffffffffffffffffffffffffff16815260200190815260200160002054905081811015610f23576040517f08c379a0000000000000000000000000000000000000000000000000000000008152600401610f1a90611a6b565b60405180910390fd5b8181036000808673ffffffffffffffffffffffffffffffffffffffff1673ffffffffffffffffffffffffffffffffffffffff16815260200190815260200160002081905550816000808573ffffffffffffffffffffffffffffffffffffffff1673ffffffffffffffffffffffffffffffffffffffff1681526020019081526020016000206000828254610fb69190611451565b925050819055508273ffffffffffffffffffffffffffffffffffffffff168473ffffffffffffffffffffffffffffffffffffffff167fddf252ad1be2c89b69c2b068fc378daa952ba7f163c4a11628f55a4df523b3ef8460405161101a9190611216565b60405180910390a361102d848484611038565b50505050565b505050565b505050565b600081519050919050565b600082825260208201905092915050565b60005b8381101561107757808201518184015260208101905061105c565b83811115611086576000848401525b50505050565b6000601f19601f8301169050919050565b60006110a88261103d565b6110b28185611048565b93506110c2818560208601611059565b6110cb8161108c565b840191505092915050565b600060208201905081810360008301526110f0818461109d565b905092915050565b600080fd5b600073ffffffffffffffffffffffffffffffffffffffff82169050919050565b6000611128826110fd565b9050919050565b6111388161111d565b811461114357600080fd5b50565b6000813590506111558161112f565b92915050565b6000819050919050565b61116e8161115b565b811461117957600080fd5b50565b60008135905061118b81611165565b92915050565b600080604083850312156111a8576111a76110f8565b5b60006111b685828601611146565b92505060206111c78582860161117c565b9150509250929050565b60008115159050919050565b6111e6816111d1565b82525050565b600060208201905061120160008301846111dd565b92915050565b6112108161115b565b82525050565b600060208201905061122b6000830184611207565b92915050565b60008060006060848603121561124a576112496110f8565b5b600061125886828701611146565b935050602061126986828701611146565b925050604061127a8682870161117c565b9150509250925092565b600060ff82169050919050565b61129a81611284565b82525050565b60006020820190506112b56000830184611291565b92915050565b6000602082840312156112d1576112d06110f8565b5b60006112df84828501611146565b91505092915050565b6000602082840312156112fe576112fd6110f8565b5b600061130c8482850161117c565b91505092915050565b61131e8161111d565b82525050565b60006020820190506113396000830184611315565b92915050565b60008060408385031215611356576113556110f8565b5b600061136485828601611146565b925050602061137585828601611146565b9150509250929050565b7f4e487b7100000000000000000000000000000000000000000000000000000000600052602260045260246000fd5b600060028204905060018216806113c657607f821691505b602082108114156113da576113d961137f565b5b50919050565b6000815190506113ef81611165565b92915050565b60006020828403121561140b5761140a6110f8565b5b6000611419848285016113e0565b91505092915050565b7f4e487b7100000000000000000000000000000000000000000000000000000000600052601160045260246000fd5b600061145c8261115b565b91506114678361115b565b9250827fffffffffffffffffffffffffffffffffffffffffffffffffffffffffffffffff0382111561149c5761149b611422565b5b828201905092915050565b60006040820190506114bc6000830185611315565b6114c96020830184611207565b9392505050565b6114d9816111d1565b81146114e457600080fd5b50565b6000815190506114f6816114d0565b92915050565b600060208284031215611512576115116110f8565b5b6000611520848285016114e7565b91505092915050565b7f4e656564206d6f72652045544800000000000000000000000000000000000000600082015250565b600061155f600d83611048565b915061156a82611529565b602082019050919050565b6000602082019050818103600083015261158e81611552565b9050919050565b7f4e6f7420456e6f75676820546f6b656e00000000000000000000000000000000600082015250565b60006115cb601083611048565b91506115d682611595565b602082019050919050565b600060208201905081810360008301526115fa816115be565b9050919050565b600081905092915050565b50565b600061161c600083611601565b91506116278261160c565b600082019050919050565b600061163d8261160f565b9150819050919050565b7f4661696c656420746f2042757900000000000000000000000000000000000000600082015250565b600061167d600d83611048565b915061168882611647565b602082019050919050565b600060208201905081810360008301526116ac81611670565b9050919050565b7f45524332303a2064656372656173656420616c6c6f77616e63652062656c6f7760008201527f207a65726f000000000000000000000000000000000000000000000000000000602082015250565b600061170f602583611048565b915061171a826116b3565b604082019050919050565b6000602082019050818103600083015261173e81611702565b9050919050565b7f45524332303a20617070726f76652066726f6d20746865207a65726f2061646460008201527f7265737300000000000000000000000000000000000000000000000000000000602082015250565b60006117a1602483611048565b91506117ac82611745565b604082019050919050565b600060208201905081810360008301526117d081611794565b9050919050565b7f45524332303a20617070726f766520746f20746865207a65726f20616464726560008201527f7373000000000000000000000000000000000000000000000000000000000000602082015250565b6000611833602283611048565b915061183e826117d7565b604082019050919050565b6000602082019050818103600083015261186281611826565b9050919050565b7f45524332303a20696e73756666696369656e7420616c6c6f77616e6365000000600082015250565b600061189f601d83611048565b91506118aa82611869565b602082019050919050565b600060208201905081810360008301526118ce81611892565b9050919050565b7f45524332303a207472616e736665722066726f6d20746865207a65726f20616460008201527f6472657373000000000000000000000000000000000000000000000000000000602082015250565b6000611931602583611048565b915061193c826118d5565b604082019050919050565b6000602082019050818103600083015261196081611924565b9050919050565b7f45524332303a207472616e7366657220746f20746865207a65726f206164647260008201527f6573730000000000000000000000000000000000000000000000000000000000602082015250565b60006119c3602383611048565b91506119ce82611967565b604082019050919050565b600060208201905081810360008301526119f2816119b6565b9050919050565b7f45524332303a207472616e7366657220616d6f756e742065786365656473206260008201527f616c616e63650000000000000000000000000000000000000000000000000000602082015250565b6000611a55602683611048565b9150611a60826119f9565b604082019050919050565b60006020820190508181036000830152611a8481611a48565b905091905056fea2646970667358221220f3b26cee9d66fbdbdab0390c2908e052f4b9a4100ebc6bf83a76420469654d4464736f6c63430008090033",
  "linkReferences": {},
  "deployedLinkReferences": {}
}